{
  "contractName": "Employee",
  "abi": [
    {
      "inputs": [],
      "stateMutability": "nonpayable",
      "type": "constructor"
    },
    {
      "anonymous": false,
      "inputs": [
        {
          "indexed": true,
          "internalType": "address",
          "name": "alamatPerangkat",
          "type": "address"
        },
        {
          "indexed": false,
          "internalType": "string",
          "name": "nama",
          "type": "string"
        },
        {
          "indexed": false,
          "internalType": "string",
          "name": "metode",
          "type": "string"
        }
      ],
      "name": "LogPegawai",
      "type": "event"
    },
    {
      "inputs": [
        {
          "internalType": "uint256",
          "name": "",
          "type": "uint256"
        }
      ],
      "name": "pegawai",
      "outputs": [
        {
          "internalType": "address",
          "name": "",
          "type": "address"
        }
      ],
      "stateMutability": "view",
      "type": "function",
      "constant": true
    },
    {
      "inputs": [
        {
          "internalType": "address",
          "name": "",
          "type": "address"
        }
      ],
      "name": "user",
      "outputs": [
        {
          "internalType": "address",
          "name": "alamatPerangkat",
          "type": "address"
        },
        {
          "internalType": "string",
          "name": "nama",
          "type": "string"
        },
        {
          "internalType": "string",
          "name": "id",
          "type": "string"
        },
        {
          "internalType": "string",
          "name": "jabatan",
          "type": "string"
        },
        {
          "internalType": "bytes32",
          "name": "password",
          "type": "bytes32"
        },
        {
          "internalType": "string",
          "name": "imageHash",
          "type": "string"
        }
      ],
      "stateMutability": "view",
      "type": "function",
      "constant": true
    },
    {
      "inputs": [
        {
          "internalType": "string",
          "name": "_nama",
          "type": "string"
        },
        {
          "internalType": "string",
          "name": "_jabatan",
          "type": "string"
        },
        {
          "internalType": "string",
          "name": "_email",
          "type": "string"
        },
        {
          "internalType": "string",
          "name": "_password",
          "type": "string"
        }
      ],
      "name": "registrasi",
      "outputs": [],
      "stateMutability": "nonpayable",
      "type": "function"
    },
    {
      "inputs": [],
      "name": "getUserAddress",
      "outputs": [
        {
          "internalType": "address",
          "name": "",
          "type": "address"
        }
      ],
      "stateMutability": "view",
      "type": "function",
      "constant": true
    },
    {
      "inputs": [],
      "name": "getNama",
      "outputs": [
        {
          "internalType": "string",
          "name": "",
          "type": "string"
        }
      ],
      "stateMutability": "view",
      "type": "function",
      "constant": true
    },
    {
      "inputs": [],
      "name": "getId",
      "outputs": [
        {
          "internalType": "string",
          "name": "",
          "type": "string"
        }
      ],
      "stateMutability": "view",
      "type": "function",
      "constant": true
    },
    {
      "inputs": [],
      "name": "getJabatan",
      "outputs": [
        {
          "internalType": "string",
          "name": "",
          "type": "string"
        }
      ],
      "stateMutability": "view",
      "type": "function",
      "constant": true
    },
    {
      "inputs": [
        {
          "internalType": "string",
          "name": "_imageHash",
          "type": "string"
        }
      ],
      "name": "setImage",
      "outputs": [],
      "stateMutability": "nonpayable",
      "type": "function"
    },
    {
      "inputs": [],
      "name": "getImage",
      "outputs": [
        {
          "internalType": "string",
          "name": "",
          "type": "string"
        }
      ],
      "stateMutability": "view",
      "type": "function",
      "constant": true
    },
    {
      "inputs": [
        {
          "internalType": "string",
          "name": "_email",
          "type": "string"
        },
        {
          "internalType": "string",
          "name": "_password",
          "type": "string"
        }
      ],
      "name": "signIn",
      "outputs": [
        {
          "internalType": "bool",
          "name": "",
          "type": "bool"
        }
      ],
      "stateMutability": "view",
      "type": "function",
      "constant": true
    }
  ],
  "bytecode": "0x608060405234801561001057600080fd5b5060008081905550611abb806100276000396000f3fe608060405234801561001057600080fd5b506004361061009e5760003560e01c806381e7e20e1161006657806381e7e20e1461015b578063cd00badc14610190578063e3cacebf146101ae578063ebc3eee8146101ca578063f3651cbb146101e85761009e565b80632c162dbc146100a35780633b686d6e146100d35780635d1ca6311461010357806367498d361461012157806371adb5e61461013f575b600080fd5b6100bd60048036038101906100b891906110e4565b610206565b6040516100ca9190611177565b60405180910390f35b6100ed60048036038101906100e891906111c8565b61028d565b6040516100fa9190611236565b60405180910390f35b61010b6102cc565b60405161011891906112d9565b60405180910390f35b61012961039e565b60405161013691906112d9565b60405180910390f35b610159600480360381019061015491906112fb565b610470565b005b61017560048036038101906101709190611370565b610559565b604051610187969594939291906113b6565b60405180910390f35b6101986107d5565b6040516101a591906112d9565b60405180910390f35b6101c860048036038101906101c39190611433565b6108a7565b005b6101d2610bda565b6040516101df9190611236565b60405180910390f35b6101f0610c44565b6040516101fd91906112d9565b60405180910390f35b6000600260003373ffffffffffffffffffffffffffffffffffffffff1673ffffffffffffffffffffffffffffffffffffffff16815260200190815260200160002060040154838360405160200161025e929190611546565b60405160208183030381529060405280519060200120036102825760019050610287565b600090505b92915050565b6001818154811061029d57600080fd5b906000526020600020016000915054906101000a900473ffffffffffffffffffffffffffffffffffffffff1681565b6060600260003373ffffffffffffffffffffffffffffffffffffffff1673ffffffffffffffffffffffffffffffffffffffff168152602001908152602001600020600201805461031b90611599565b80601f016020809104026020016040519081016040528092919081815260200182805461034790611599565b80156103945780601f1061036957610100808354040283529160200191610394565b820191906000526020600020905b81548152906001019060200180831161037757829003601f168201915b5050505050905090565b6060600260003373ffffffffffffffffffffffffffffffffffffffff1673ffffffffffffffffffffffffffffffffffffffff16815260200190815260200160002060030180546103ed90611599565b80601f016020809104026020016040519081016040528092919081815260200182805461041990611599565b80156104665780601f1061043b57610100808354040283529160200191610466565b820191906000526020600020905b81548152906001019060200180831161044957829003601f168201915b5050505050905090565b80600260003373ffffffffffffffffffffffffffffffffffffffff1673ffffffffffffffffffffffffffffffffffffffff16815260200190815260200160002060050190805190602001906104c6929190610ee7565b503373ffffffffffffffffffffffffffffffffffffffff167fda54ade3eeac9d7ec5fcb34574e0b3ce27e5b4179d1cfe95902f0f3b75fc2840600260003373ffffffffffffffffffffffffffffffffffffffff1673ffffffffffffffffffffffffffffffffffffffff16815260200190815260200160002060010160405161054e91906116ab565b60405180910390a250565b60026020528060005260406000206000915090508060000160009054906101000a900473ffffffffffffffffffffffffffffffffffffffff16908060010180546105a290611599565b80601f01602080910402602001604051908101604052809291908181526020018280546105ce90611599565b801561061b5780601f106105f05761010080835404028352916020019161061b565b820191906000526020600020905b8154815290600101906020018083116105fe57829003601f168201915b50505050509080600201805461063090611599565b80601f016020809104026020016040519081016040528092919081815260200182805461065c90611599565b80156106a95780601f1061067e576101008083540402835291602001916106a9565b820191906000526020600020905b81548152906001019060200180831161068c57829003601f168201915b5050505050908060030180546106be90611599565b80601f01602080910402602001604051908101604052809291908181526020018280546106ea90611599565b80156107375780601f1061070c57610100808354040283529160200191610737565b820191906000526020600020905b81548152906001019060200180831161071a57829003601f168201915b50505050509080600401549080600501805461075290611599565b80601f016020809104026020016040519081016040528092919081815260200182805461077e90611599565b80156107cb5780601f106107a0576101008083540402835291602001916107cb565b820191906000526020600020905b8154815290600101906020018083116107ae57829003601f168201915b5050505050905086565b6060600260003373ffffffffffffffffffffffffffffffffffffffff1673ffffffffffffffffffffffffffffffffffffffff168152602001908152602001600020600101805461082490611599565b80601f016020809104026020016040519081016040528092919081815260200182805461085090611599565b801561089d5780601f106108725761010080835404028352916020019161089d565b820191906000526020600020905b81548152906001019060200180831161088057829003601f168201915b5050505050905090565b600073ffffffffffffffffffffffffffffffffffffffff16600260003373ffffffffffffffffffffffffffffffffffffffff1673ffffffffffffffffffffffffffffffffffffffff16815260200190815260200160002060000160009054906101000a900473ffffffffffffffffffffffffffffffffffffffff1673ffffffffffffffffffffffffffffffffffffffff1614610978576040517f08c379a000000000000000000000000000000000000000000000000000000000815260040161096f9061172c565b60405180910390fd5b60006040518060c001604052803373ffffffffffffffffffffffffffffffffffffffff1681526020018681526020016109b5338888600054610d16565b815260200185815260200184846040516020016109d3929190611546565b60405160208183030381529060405280519060200120815260200160405180602001604052806000815250815250905080600260003373ffffffffffffffffffffffffffffffffffffffff1673ffffffffffffffffffffffffffffffffffffffff16815260200190815260200160002060008201518160000160006101000a81548173ffffffffffffffffffffffffffffffffffffffff021916908373ffffffffffffffffffffffffffffffffffffffff1602179055506020820151816001019080519060200190610aa6929190610ee7565b506040820151816002019080519060200190610ac3929190610ee7565b506060820151816003019080519060200190610ae0929190610ee7565b506080820151816004015560a0820151816005019080519060200190610b07929190610ee7565b509050506001339080600181540180825580915050600190039060005260206000200160009091909190916101000a81548173ffffffffffffffffffffffffffffffffffffffff021916908373ffffffffffffffffffffffffffffffffffffffff160217905550600080815480929190610b809061177b565b91905055503373ffffffffffffffffffffffffffffffffffffffff167fda54ade3eeac9d7ec5fcb34574e0b3ce27e5b4179d1cfe95902f0f3b75fc284086604051610bcb919061180f565b60405180910390a25050505050565b6000600260003373ffffffffffffffffffffffffffffffffffffffff1673ffffffffffffffffffffffffffffffffffffffff16815260200190815260200160002060000160009054906101000a900473ffffffffffffffffffffffffffffffffffffffff16905090565b6060600260003373ffffffffffffffffffffffffffffffffffffffff1673ffffffffffffffffffffffffffffffffffffffff1681526020019081526020016000206005018054610c9390611599565b80601f0160208091040260200160405190810160405280929190818152602001828054610cbf90611599565b8015610d0c5780601f10610ce157610100808354040283529160200191610d0c565b820191906000526020600020905b815481529060010190602001808311610cef57829003601f168201915b5050505050905090565b606060006402540be40086868686604051602001610d3794939291906118ad565b6040516020818303038152906040528051906020012060001c610d5a9190611922565b905060008103610da2576040518060400160405280600181526020017f3000000000000000000000000000000000000000000000000000000000000000815250915050610edf565b600081905060005b60008214610dd4578080610dbd9061177b565b915050600a82610dcd9190611953565b9150610daa565b60008167ffffffffffffffff811115610df057610def610fb9565b5b6040519080825280601f01601f191660200182016040528015610e225781602001600182028036833780820191505090505b50905060008290505b60008514610ed657600181610e409190611984565b90506000600a8087610e529190611953565b610e5c91906119b8565b86610e679190611984565b6030610e739190611a1f565b905060008160f81b905080848481518110610e9157610e90611a56565b5b60200101907effffffffffffffffffffffffffffffffffffffffffffffffffffffffffffff1916908160001a905350600a87610ecd9190611953565b96505050610e2b565b81955050505050505b949350505050565b828054610ef390611599565b90600052602060002090601f016020900481019282610f155760008555610f5c565b82601f10610f2e57805160ff1916838001178555610f5c565b82800160010185558215610f5c579182015b82811115610f5b578251825591602001919060010190610f40565b5b509050610f699190610f6d565b5090565b5b80821115610f86576000816000905550600101610f6e565b5090565b6000604051905090565b600080fd5b600080fd5b600080fd5b600080fd5b6000601f19601f8301169050919050565b7f4e487b7100000000000000000000000000000000000000000000000000000000600052604160045260246000fd5b610ff182610fa8565b810181811067ffffffffffffffff821117156110105761100f610fb9565b5b80604052505050565b6000611023610f8a565b905061102f8282610fe8565b919050565b600067ffffffffffffffff82111561104f5761104e610fb9565b5b61105882610fa8565b9050602081019050919050565b82818337600083830152505050565b600061108761108284611034565b611019565b9050828152602081018484840111156110a3576110a2610fa3565b5b6110ae848285611065565b509392505050565b600082601f8301126110cb576110ca610f9e565b5b81356110db848260208601611074565b91505092915050565b600080604083850312156110fb576110fa610f94565b5b600083013567ffffffffffffffff81111561111957611118610f99565b5b611125858286016110b6565b925050602083013567ffffffffffffffff81111561114657611145610f99565b5b611152858286016110b6565b9150509250929050565b60008115159050919050565b6111718161115c565b82525050565b600060208201905061118c6000830184611168565b92915050565b6000819050919050565b6111a581611192565b81146111b057600080fd5b50565b6000813590506111c28161119c565b92915050565b6000602082840312156111de576111dd610f94565b5b60006111ec848285016111b3565b91505092915050565b600073ffffffffffffffffffffffffffffffffffffffff82169050919050565b6000611220826111f5565b9050919050565b61123081611215565b82525050565b600060208201905061124b6000830184611227565b92915050565b600081519050919050565b600082825260208201905092915050565b60005b8381101561128b578082015181840152602081019050611270565b8381111561129a576000848401525b50505050565b60006112ab82611251565b6112b5818561125c565b93506112c581856020860161126d565b6112ce81610fa8565b840191505092915050565b600060208201905081810360008301526112f381846112a0565b905092915050565b60006020828403121561131157611310610f94565b5b600082013567ffffffffffffffff81111561132f5761132e610f99565b5b61133b848285016110b6565b91505092915050565b61134d81611215565b811461135857600080fd5b50565b60008135905061136a81611344565b92915050565b60006020828403121561138657611385610f94565b5b60006113948482850161135b565b91505092915050565b6000819050919050565b6113b08161139d565b82525050565b600060c0820190506113cb6000830189611227565b81810360208301526113dd81886112a0565b905081810360408301526113f181876112a0565b9050818103606083015261140581866112a0565b905061141460808301856113a7565b81810360a083015261142681846112a0565b9050979650505050505050565b6000806000806080858703121561144d5761144c610f94565b5b600085013567ffffffffffffffff81111561146b5761146a610f99565b5b611477878288016110b6565b945050602085013567ffffffffffffffff81111561149857611497610f99565b5b6114a4878288016110b6565b935050604085013567ffffffffffffffff8111156114c5576114c4610f99565b5b6114d1878288016110b6565b925050606085013567ffffffffffffffff8111156114f2576114f1610f99565b5b6114fe878288016110b6565b91505092959194509250565b600081905092915050565b600061152082611251565b61152a818561150a565b935061153a81856020860161126d565b80840191505092915050565b60006115528285611515565b915061155e8284611515565b91508190509392505050565b7f4e487b7100000000000000000000000000000000000000000000000000000000600052602260045260246000fd5b600060028204905060018216806115b157607f821691505b6020821081036115c4576115c361156a565b5b50919050565b60008190508160005260206000209050919050565b600081546115ec81611599565b6115f6818661125c565b94506001821660008114611611576001811461162357611656565b60ff1983168652602086019350611656565b61162c856115ca565b60005b8381101561164e5781548189015260018201915060208101905061162f565b808801955050505b50505092915050565b7f4d656e6767616e746920666f746f2070726f66696c0000000000000000000000600082015250565b600061169560158361125c565b91506116a08261165f565b602082019050919050565b600060408201905081810360008301526116c581846115df565b905081810360208301526116d881611688565b905092915050565b7f416c726561647920526567697374657265640000000000000000000000000000600082015250565b600061171660128361125c565b9150611721826116e0565b602082019050919050565b6000602082019050818103600083015261174581611709565b9050919050565b7f4e487b7100000000000000000000000000000000000000000000000000000000600052601160045260246000fd5b600061178682611192565b91507fffffffffffffffffffffffffffffffffffffffffffffffffffffffffffffffff82036117b8576117b761174c565b5b600182019050919050565b7f7265676973747261736900000000000000000000000000000000000000000000600082015250565b60006117f9600a8361125c565b9150611804826117c3565b602082019050919050565b6000604082019050818103600083015261182981846112a0565b9050818103602083015261183c816117ec565b905092915050565b60008160601b9050919050565b600061185c82611844565b9050919050565b600061186e82611851565b9050919050565b61188661188182611215565b611863565b82525050565b6000819050919050565b6118a76118a282611192565b61188c565b82525050565b60006118b98287611875565b6014820191506118c98286611515565b91506118d58285611515565b91506118e18284611896565b60208201915081905095945050505050565b7f4e487b7100000000000000000000000000000000000000000000000000000000600052601260045260246000fd5b600061192d82611192565b915061193883611192565b925082611948576119476118f3565b5b828206905092915050565b600061195e82611192565b915061196983611192565b925082611979576119786118f3565b5b828204905092915050565b600061198f82611192565b915061199a83611192565b9250828210156119ad576119ac61174c565b5b828203905092915050565b60006119c382611192565b91506119ce83611192565b9250817fffffffffffffffffffffffffffffffffffffffffffffffffffffffffffffffff0483118215151615611a0757611a0661174c565b5b828202905092915050565b600060ff82169050919050565b6000611a2a82611a12565b9150611a3583611a12565b92508260ff03821115611a4b57611a4a61174c565b5b828201905092915050565b7f4e487b7100000000000000000000000000000000000000000000000000000000600052603260045260246000fdfea264697066735822122092a55c8f7ef9dcfe23aceefde3e10e23322cf6cfc658fa79ef3f8f454b9bbdee64736f6c634300080d0033",
  "immutableReferences": {},
  "source": "// SPDX-License-Identifier: Unlicense\r\npragma solidity >=0.4.21 <8.10.0;\r\n\r\ncontract Employee {\r\n\r\n    uint jumlahPegawai;\r\n\r\n    constructor () {\r\n        jumlahPegawai = 0;\r\n    }\r\n\r\n    struct Pegawai {\r\n        address alamatPerangkat;\r\n        string nama;\r\n        string id;\r\n        string jabatan;\r\n        bytes32 password;\r\n        string imageHash;\r\n    }\r\n\r\n    address[] public pegawai;\r\n    mapping(address => Pegawai) public user;\r\n\r\n    event LogPegawai(address indexed alamatPerangkat, string nama, string metode);\r\n\r\n    function setID(address _pegawai, string memory _nama, string memory _jabatan, uint _jumlahPegawai) private pure returns(string memory){\r\n        uint _i = uint(keccak256(abi.encodePacked(_pegawai, _nama, _jabatan, _jumlahPegawai))) % 10000000000;\r\n        if (_i == 0) {\r\n            return \"0\";\r\n        }\r\n        uint j = _i;\r\n        uint len;\r\n        while (j != 0) {\r\n            len++;\r\n            j /= 10;\r\n        }\r\n        bytes memory bstr = new bytes(len);\r\n        uint k = len;\r\n        while (_i != 0) {\r\n            k = k-1;\r\n            uint8 temp = (48 + uint8(_i - _i / 10 * 10));\r\n            bytes1 b1 = bytes1(temp);\r\n            bstr[k] = b1;\r\n            _i /= 10;\r\n        }\r\n        return string(bstr);\r\n    }\r\n\r\n    function registrasi(string memory _nama, string memory _jabatan, string memory _email, string memory _password) public {\r\n        require(user[msg.sender].alamatPerangkat == address(0x0000000000000000000000000000000000000000), \"Already Registered\");\r\n        Pegawai memory newPegawai = Pegawai({\r\n            alamatPerangkat: msg.sender,\r\n            nama : _nama,\r\n            id : setID(msg.sender, _nama, _jabatan, jumlahPegawai),\r\n            jabatan : _jabatan,\r\n            password : keccak256(abi.encodePacked(_email, _password)),\r\n            imageHash: \"\"\r\n        });\r\n        user[msg.sender] = newPegawai;\r\n        pegawai.push(msg.sender);\r\n        jumlahPegawai++;\r\n        emit LogPegawai(msg.sender, _nama, \"registrasi\");\r\n    }\r\n\r\n    function getUserAddress() public view returns (address) {\r\n        return user[msg.sender].alamatPerangkat;\r\n    }\r\n\r\n    function getNama() public view returns (string memory) {\r\n        return user[msg.sender].nama;\r\n    }\r\n    function getId() public view returns (string memory) {\r\n        return user[msg.sender].id;\r\n    }\r\n\r\n    function getJabatan() public view returns (string memory) {\r\n        return user[msg.sender].jabatan;\r\n    }\r\n\r\n    function setImage(string memory _imageHash) public {\r\n        user[msg.sender].imageHash = _imageHash;\r\n        emit LogPegawai(msg.sender, user[msg.sender].nama, \"Mengganti foto profil\");\r\n    }\r\n\r\n    function getImage() public view returns (string memory) {\r\n        return user[msg.sender].imageHash;\r\n    }\r\n\r\n    function signIn(string memory _email, string memory _password) public view returns (bool) {\r\n        if (keccak256(abi.encodePacked(_email, _password)) == user[msg.sender].password) {\r\n            return true;\r\n        }\r\n        return false;\r\n    }\r\n    \r\n}",
  "sourcePath": "C:\\Users\\Angga Danar\\Documents\\PKL\\MyApps\\contracts\\Employee.sol",
  "compiler": {
    "name": "solc",
    "version": "0.8.13+commit.abaa5c0e.Emscripten.clang"
  },
  "schemaVersion": "3.4.3",
  "updatedAt": "2022-03-18T03:20:55.335Z",
  "networkType": "ethereum",
  "devdoc": {
    "kind": "dev",
    "methods": {},
    "version": 1
  },
  "userdoc": {
    "kind": "user",
    "methods": {},
    "version": 1
  }
}